{
  "_format": "hh-sol-artifact-1",
  "contractName": "Raffle",
  "sourceName": "contracts/raffle.sol",
  "abi": [
    {
      "inputs": [
        {
          "internalType": "address",
          "name": "vrfCordinatorV2",
          "type": "address"
        },
        {
          "internalType": "uint256",
          "name": "_fee",
          "type": "uint256"
        },
        {
          "internalType": "bytes32",
          "name": "gaslane",
          "type": "bytes32"
        },
        {
          "internalType": "uint64",
          "name": "subId",
          "type": "uint64"
        },
        {
          "internalType": "uint32",
          "name": "cbgaslimit",
          "type": "uint32"
        },
        {
          "internalType": "uint256",
          "name": "interval",
          "type": "uint256"
        }
      ],
      "stateMutability": "nonpayable",
      "type": "constructor"
    },
    {
      "inputs": [
        {
          "internalType": "address",
          "name": "have",
          "type": "address"
        },
        {
          "internalType": "address",
          "name": "want",
          "type": "address"
        }
      ],
      "name": "OnlyCoordinatorCanFulfill",
      "type": "error"
    },
    {
      "inputs": [],
      "name": "Raffle_FailedToTransferToWinner",
      "type": "error"
    },
    {
      "inputs": [
        {
          "internalType": "uint256",
          "name": "balance",
          "type": "uint256"
        },
        {
          "internalType": "uint256",
          "name": "players",
          "type": "uint256"
        },
        {
          "internalType": "uint256",
          "name": "raffleState",
          "type": "uint256"
        }
      ],
      "name": "Raffle_UpkeepNotNeeded",
      "type": "error"
    },
    {
      "anonymous": false,
      "inputs": [
        {
          "indexed": true,
          "internalType": "uint256",
          "name": "requestId",
          "type": "uint256"
        }
      ],
      "name": "RequestedRaffleWinner",
      "type": "event"
    },
    {
      "anonymous": false,
      "inputs": [
        {
          "indexed": true,
          "internalType": "address",
          "name": "winner",
          "type": "address"
        }
      ],
      "name": "WinnerPicked",
      "type": "event"
    },
    {
      "anonymous": false,
      "inputs": [
        {
          "indexed": true,
          "internalType": "address",
          "name": "player",
          "type": "address"
        }
      ],
      "name": "raffleEntered",
      "type": "event"
    },
    {
      "inputs": [
        {
          "internalType": "bytes",
          "name": "checkData",
          "type": "bytes"
        }
      ],
      "name": "checkUpkeep",
      "outputs": [
        {
          "internalType": "bool",
          "name": "upkeepNeeded",
          "type": "bool"
        },
        {
          "internalType": "bytes",
          "name": "performData",
          "type": "bytes"
        }
      ],
      "stateMutability": "view",
      "type": "function"
    },
    {
      "inputs": [],
      "name": "getEntranceFee",
      "outputs": [
        {
          "internalType": "uint256",
          "name": "",
          "type": "uint256"
        }
      ],
      "stateMutability": "view",
      "type": "function"
    },
    {
      "inputs": [
        {
          "internalType": "uint256",
          "name": "_player",
          "type": "uint256"
        }
      ],
      "name": "getPlayer",
      "outputs": [
        {
          "internalType": "address",
          "name": "",
          "type": "address"
        }
      ],
      "stateMutability": "view",
      "type": "function"
    },
    {
      "inputs": [],
      "name": "getRaffleState",
      "outputs": [
        {
          "internalType": "enum Raffle.RaffleState",
          "name": "",
          "type": "uint8"
        }
      ],
      "stateMutability": "view",
      "type": "function"
    },
    {
      "inputs": [],
      "name": "getRecentWinner",
      "outputs": [
        {
          "internalType": "address",
          "name": "",
          "type": "address"
        }
      ],
      "stateMutability": "view",
      "type": "function"
    },
    {
      "inputs": [
        {
          "internalType": "bytes",
          "name": "performData",
          "type": "bytes"
        }
      ],
      "name": "performUpkeep",
      "outputs": [],
      "stateMutability": "nonpayable",
      "type": "function"
    },
    {
      "inputs": [
        {
          "internalType": "uint256",
          "name": "requestId",
          "type": "uint256"
        },
        {
          "internalType": "uint256[]",
          "name": "randomWords",
          "type": "uint256[]"
        }
      ],
      "name": "rawFulfillRandomWords",
      "outputs": [],
      "stateMutability": "nonpayable",
      "type": "function"
    }
  ],
  "bytecode": "0x61014060405234801561001157600080fd5b5060405161148f38038061148f8339818101604052810190610033919061026e565b858073ffffffffffffffffffffffffffffffffffffffff1660808173ffffffffffffffffffffffffffffffffffffffff1681525050508460a081815250508573ffffffffffffffffffffffffffffffffffffffff1660c08173ffffffffffffffffffffffffffffffffffffffff16815250508360e081815250508267ffffffffffffffff166101008167ffffffffffffffff16815250508163ffffffff166101208163ffffffff16815250506000600360146101000a81548160ff02191690836001811115610105576101046102fb565b5b0217905550426001819055508060028190555050505050505061032a565b600080fd5b600073ffffffffffffffffffffffffffffffffffffffff82169050919050565b600061015382610128565b9050919050565b61016381610148565b811461016e57600080fd5b50565b6000815190506101808161015a565b92915050565b6000819050919050565b61019981610186565b81146101a457600080fd5b50565b6000815190506101b681610190565b92915050565b6000819050919050565b6101cf816101bc565b81146101da57600080fd5b50565b6000815190506101ec816101c6565b92915050565b600067ffffffffffffffff82169050919050565b61020f816101f2565b811461021a57600080fd5b50565b60008151905061022c81610206565b92915050565b600063ffffffff82169050919050565b61024b81610232565b811461025657600080fd5b50565b60008151905061026881610242565b92915050565b60008060008060008060c0878903121561028b5761028a610123565b5b600061029989828a01610171565b96505060206102aa89828a016101a7565b95505060406102bb89828a016101dd565b94505060606102cc89828a0161021d565b93505060806102dd89828a01610259565b92505060a06102ee89828a016101a7565b9150509295509295509295565b7f4e487b7100000000000000000000000000000000000000000000000000000000600052602160045260246000fd5b60805160a05160c05160e051610100516101205161110f61038060003960006103ac01526000610389015260006103680152600061032c015260006101790152600081816101b6015261020a015261110f6000f3fe608060405234801561001057600080fd5b506004361061007d5760003560e01c80634585e33b1161005b5780634585e33b146100da578063473f1ddc146100f65780636e04ff0d14610114578063e55ae4e8146101455761007d565b806309bc33a714610082578063115cbaf5146100a05780631fe543e3146100be575b600080fd5b61008a610175565b6040516100979190610899565b60405180910390f35b6100a861019d565b6040516100b5919061092b565b60405180910390f35b6100d860048036038101906100d39190610adf565b6101b4565b005b6100f460048036038101906100ef9190610b96565b610274565b005b6100fe610465565b60405161010b9190610c24565b60405180910390f35b61012e60048036038101906101299190610cf4565b61048f565b60405161013c929190610dd7565b60405180910390f35b61015f600480360381019061015a9190610e07565b61051e565b60405161016c9190610c24565b60405180910390f35b60007f0000000000000000000000000000000000000000000000000000000000000000905090565b6000600360149054906101000a900460ff16905090565b7f000000000000000000000000000000000000000000000000000000000000000073ffffffffffffffffffffffffffffffffffffffff163373ffffffffffffffffffffffffffffffffffffffff161461026657337f00000000000000000000000000000000000000000000000000000000000000006040517f1cf993f400000000000000000000000000000000000000000000000000000000815260040161025d929190610e34565b60405180910390fd5b6102708282610565565b5050565b600061028e6040518060200160405280600081525061048f565b509050806102fd5747600080549050600360149054906101000a900460ff1660018111156102bf576102be6108b4565b5b6040517fe059521b0000000000000000000000000000000000000000000000000000000081526004016102f493929190610e5d565b60405180910390fd5b6001600360146101000a81548160ff02191690836001811115610323576103226108b4565b5b021790555060007f000000000000000000000000000000000000000000000000000000000000000073ffffffffffffffffffffffffffffffffffffffff16635d3b1d307f00000000000000000000000000000000000000000000000000000000000000007f000000000000000000000000000000000000000000000000000000000000000060037f000000000000000000000000000000000000000000000000000000000000000060016040518663ffffffff1660e01b81526004016103ed959493929190610f0c565b6020604051808303816000875af115801561040c573d6000803e3d6000fd5b505050506040513d601f19601f820116820180604052508101906104309190610f74565b9050807fcd6e45c8998311cab7e9d4385596cac867e20a0587194b954fa3a731c93ce78b60405160405180910390a250505050565b6000600360009054906101000a900473ffffffffffffffffffffffffffffffffffffffff16905090565b600060606000600360149054906101000a900460ff1660018111156104b7576104b66108b4565b5b600060018111156104cb576104ca6108b4565b5b1490506000600254600154426104e19190610fd0565b119050600080600080549050119050600080471190508380156105015750825b801561050a5750805b80156105135750815b955050505050915091565b600080828154811061053357610532611004565b5b9060005260206000200160009054906101000a900473ffffffffffffffffffffffffffffffffffffffff169050919050565b60008080549050826000815181106105805761057f611004565b5b60200260200101516105929190611062565b905060008082815481106105a9576105a8611004565b5b9060005260206000200160009054906101000a900473ffffffffffffffffffffffffffffffffffffffff16905080600360006101000a81548173ffffffffffffffffffffffffffffffffffffffff021916908373ffffffffffffffffffffffffffffffffffffffff160217905550600067ffffffffffffffff8111156106325761063161099c565b5b6040519080825280602002602001820160405280156106605781602001602082028036833780820191505090505b50600090805190602001906106769291906107d9565b50426001819055506000600360009054906101000a900473ffffffffffffffffffffffffffffffffffffffff1673ffffffffffffffffffffffffffffffffffffffff16476040516106c6906110c4565b60006040518083038185875af1925050503d8060008114610703576040519150601f19603f3d011682016040523d82523d6000602084013e610708565b606091505b505090506000600360146101000a81548160ff02191690836001811115610732576107316108b4565b5b02179055508061076d576040517ee4447500000000000000000000000000000000000000000000000000000000815260040160405180910390fd5b600360009054906101000a900473ffffffffffffffffffffffffffffffffffffffff1673ffffffffffffffffffffffffffffffffffffffff167f5b690ec4a06fe979403046eaeea5b3ce38524683c3001f662c8b5a829632f7df60405160405180910390a25050505050565b828054828255906000526020600020908101928215610852579160200282015b828111156108515782518260006101000a81548173ffffffffffffffffffffffffffffffffffffffff021916908373ffffffffffffffffffffffffffffffffffffffff160217905550916020019190600101906107f9565b5b50905061085f9190610863565b5090565b5b8082111561087c576000816000905550600101610864565b5090565b6000819050919050565b61089381610880565b82525050565b60006020820190506108ae600083018461088a565b92915050565b7f4e487b7100000000000000000000000000000000000000000000000000000000600052602160045260246000fd5b600281106108f4576108f36108b4565b5b50565b6000819050610905826108e3565b919050565b6000610915826108f7565b9050919050565b6109258161090a565b82525050565b6000602082019050610940600083018461091c565b92915050565b6000604051905090565b600080fd5b600080fd5b61096381610880565b811461096e57600080fd5b50565b6000813590506109808161095a565b92915050565b600080fd5b6000601f19601f8301169050919050565b7f4e487b7100000000000000000000000000000000000000000000000000000000600052604160045260246000fd5b6109d48261098b565b810181811067ffffffffffffffff821117156109f3576109f261099c565b5b80604052505050565b6000610a06610946565b9050610a1282826109cb565b919050565b600067ffffffffffffffff821115610a3257610a3161099c565b5b602082029050602081019050919050565b600080fd5b6000610a5b610a5684610a17565b6109fc565b90508083825260208201905060208402830185811115610a7e57610a7d610a43565b5b835b81811015610aa75780610a938882610971565b845260208401935050602081019050610a80565b5050509392505050565b600082601f830112610ac657610ac5610986565b5b8135610ad6848260208601610a48565b91505092915050565b60008060408385031215610af657610af5610950565b5b6000610b0485828601610971565b925050602083013567ffffffffffffffff811115610b2557610b24610955565b5b610b3185828601610ab1565b9150509250929050565b600080fd5b60008083601f840112610b5657610b55610986565b5b8235905067ffffffffffffffff811115610b7357610b72610b3b565b5b602083019150836001820283011115610b8f57610b8e610a43565b5b9250929050565b60008060208385031215610bad57610bac610950565b5b600083013567ffffffffffffffff811115610bcb57610bca610955565b5b610bd785828601610b40565b92509250509250929050565b600073ffffffffffffffffffffffffffffffffffffffff82169050919050565b6000610c0e82610be3565b9050919050565b610c1e81610c03565b82525050565b6000602082019050610c396000830184610c15565b92915050565b600080fd5b600067ffffffffffffffff821115610c5f57610c5e61099c565b5b610c688261098b565b9050602081019050919050565b82818337600083830152505050565b6000610c97610c9284610c44565b6109fc565b905082815260208101848484011115610cb357610cb2610c3f565b5b610cbe848285610c75565b509392505050565b600082601f830112610cdb57610cda610986565b5b8135610ceb848260208601610c84565b91505092915050565b600060208284031215610d0a57610d09610950565b5b600082013567ffffffffffffffff811115610d2857610d27610955565b5b610d3484828501610cc6565b91505092915050565b60008115159050919050565b610d5281610d3d565b82525050565b600081519050919050565b600082825260208201905092915050565b60005b83811015610d92578082015181840152602081019050610d77565b60008484015250505050565b6000610da982610d58565b610db38185610d63565b9350610dc3818560208601610d74565b610dcc8161098b565b840191505092915050565b6000604082019050610dec6000830185610d49565b8181036020830152610dfe8184610d9e565b90509392505050565b600060208284031215610e1d57610e1c610950565b5b6000610e2b84828501610971565b91505092915050565b6000604082019050610e496000830185610c15565b610e566020830184610c15565b9392505050565b6000606082019050610e72600083018661088a565b610e7f602083018561088a565b610e8c604083018461088a565b949350505050565b6000819050919050565b610ea781610e94565b82525050565b600067ffffffffffffffff82169050919050565b610eca81610ead565b82525050565b600061ffff82169050919050565b610ee781610ed0565b82525050565b600063ffffffff82169050919050565b610f0681610eed565b82525050565b600060a082019050610f216000830188610e9e565b610f2e6020830187610ec1565b610f3b6040830186610ede565b610f486060830185610efd565b610f556080830184610efd565b9695505050505050565b600081519050610f6e8161095a565b92915050565b600060208284031215610f8a57610f89610950565b5b6000610f9884828501610f5f565b91505092915050565b7f4e487b7100000000000000000000000000000000000000000000000000000000600052601160045260246000fd5b6000610fdb82610880565b9150610fe683610880565b9250828203905081811115610ffe57610ffd610fa1565b5b92915050565b7f4e487b7100000000000000000000000000000000000000000000000000000000600052603260045260246000fd5b7f4e487b7100000000000000000000000000000000000000000000000000000000600052601260045260246000fd5b600061106d82610880565b915061107883610880565b92508261108857611087611033565b5b828206905092915050565b600081905092915050565b50565b60006110ae600083611093565b91506110b98261109e565b600082019050919050565b60006110cf826110a1565b915081905091905056fea264697066735822122026b412684774b2426c1b8b917488a0b66cd2767320c44014aaa37ca338c59b7464736f6c634300081c0033",
  "linkReferences": {},
  "deployedLinkReferences": {}
}